{
  "_format": "hh-sol-artifact-1",
  "contractName": "TextBox",
  "sourceName": "contracts/TextBox.sol",
  "abi": [
    {
      "inputs": [],
      "stateMutability": "nonpayable",
      "type": "constructor"
    },
    {
      "anonymous": false,
      "inputs": [
        {
          "indexed": true,
          "internalType": "address",
          "name": "owner",
          "type": "address"
        },
        {
          "indexed": true,
          "internalType": "address",
          "name": "approved",
          "type": "address"
        },
        {
          "indexed": true,
          "internalType": "uint256",
          "name": "tokenId",
          "type": "uint256"
        }
      ],
      "name": "Approval",
      "type": "event"
    },
    {
      "anonymous": false,
      "inputs": [
        {
          "indexed": true,
          "internalType": "address",
          "name": "owner",
          "type": "address"
        },
        {
          "indexed": true,
          "internalType": "address",
          "name": "operator",
          "type": "address"
        },
        {
          "indexed": false,
          "internalType": "bool",
          "name": "approved",
          "type": "bool"
        }
      ],
      "name": "ApprovalForAll",
      "type": "event"
    },
    {
      "anonymous": false,
      "inputs": [
        {
          "indexed": false,
          "internalType": "address",
          "name": "sender",
          "type": "address"
        },
        {
          "indexed": false,
          "internalType": "uint256",
          "name": "tokenId",
          "type": "uint256"
        }
      ],
      "name": "NewEpicNFTMinted",
      "type": "event"
    },
    {
      "anonymous": false,
      "inputs": [
        {
          "indexed": true,
          "internalType": "address",
          "name": "from",
          "type": "address"
        },
        {
          "indexed": true,
          "internalType": "address",
          "name": "to",
          "type": "address"
        },
        {
          "indexed": true,
          "internalType": "uint256",
          "name": "tokenId",
          "type": "uint256"
        }
      ],
      "name": "Transfer",
      "type": "event"
    },
    {
      "inputs": [
        {
          "internalType": "address",
          "name": "to",
          "type": "address"
        },
        {
          "internalType": "uint256",
          "name": "tokenId",
          "type": "uint256"
        }
      ],
      "name": "approve",
      "outputs": [],
      "stateMutability": "nonpayable",
      "type": "function"
    },
    {
      "inputs": [
        {
          "internalType": "address",
          "name": "owner",
          "type": "address"
        }
      ],
      "name": "balanceOf",
      "outputs": [
        {
          "internalType": "uint256",
          "name": "",
          "type": "uint256"
        }
      ],
      "stateMutability": "view",
      "type": "function"
    },
    {
      "inputs": [
        {
          "internalType": "uint256",
          "name": "tokenId",
          "type": "uint256"
        }
      ],
      "name": "getApproved",
      "outputs": [
        {
          "internalType": "address",
          "name": "",
          "type": "address"
        }
      ],
      "stateMutability": "view",
      "type": "function"
    },
    {
      "inputs": [],
      "name": "getTotalNFTsMinted",
      "outputs": [
        {
          "internalType": "uint256",
          "name": "",
          "type": "uint256"
        }
      ],
      "stateMutability": "view",
      "type": "function"
    },
    {
      "inputs": [
        {
          "internalType": "address",
          "name": "owner",
          "type": "address"
        },
        {
          "internalType": "address",
          "name": "operator",
          "type": "address"
        }
      ],
      "name": "isApprovedForAll",
      "outputs": [
        {
          "internalType": "bool",
          "name": "",
          "type": "bool"
        }
      ],
      "stateMutability": "view",
      "type": "function"
    },
    {
      "inputs": [
        {
          "internalType": "string",
          "name": "metadataURI",
          "type": "string"
        }
      ],
      "name": "makeAnEpicNFT",
      "outputs": [],
      "stateMutability": "nonpayable",
      "type": "function"
    },
    {
      "inputs": [],
      "name": "name",
      "outputs": [
        {
          "internalType": "string",
          "name": "",
          "type": "string"
        }
      ],
      "stateMutability": "view",
      "type": "function"
    },
    {
      "inputs": [
        {
          "internalType": "uint256",
          "name": "tokenId",
          "type": "uint256"
        }
      ],
      "name": "ownerOf",
      "outputs": [
        {
          "internalType": "address",
          "name": "",
          "type": "address"
        }
      ],
      "stateMutability": "view",
      "type": "function"
    },
    {
      "inputs": [
        {
          "internalType": "address",
          "name": "from",
          "type": "address"
        },
        {
          "internalType": "address",
          "name": "to",
          "type": "address"
        },
        {
          "internalType": "uint256",
          "name": "tokenId",
          "type": "uint256"
        }
      ],
      "name": "safeTransferFrom",
      "outputs": [],
      "stateMutability": "nonpayable",
      "type": "function"
    },
    {
      "inputs": [
        {
          "internalType": "address",
          "name": "from",
          "type": "address"
        },
        {
          "internalType": "address",
          "name": "to",
          "type": "address"
        },
        {
          "internalType": "uint256",
          "name": "tokenId",
          "type": "uint256"
        },
        {
          "internalType": "bytes",
          "name": "_data",
          "type": "bytes"
        }
      ],
      "name": "safeTransferFrom",
      "outputs": [],
      "stateMutability": "nonpayable",
      "type": "function"
    },
    {
      "inputs": [
        {
          "internalType": "address",
          "name": "operator",
          "type": "address"
        },
        {
          "internalType": "bool",
          "name": "approved",
          "type": "bool"
        }
      ],
      "name": "setApprovalForAll",
      "outputs": [],
      "stateMutability": "nonpayable",
      "type": "function"
    },
    {
      "inputs": [
        {
          "internalType": "bytes4",
          "name": "interfaceId",
          "type": "bytes4"
        }
      ],
      "name": "supportsInterface",
      "outputs": [
        {
          "internalType": "bool",
          "name": "",
          "type": "bool"
        }
      ],
      "stateMutability": "view",
      "type": "function"
    },
    {
      "inputs": [],
      "name": "symbol",
      "outputs": [
        {
          "internalType": "string",
          "name": "",
          "type": "string"
        }
      ],
      "stateMutability": "view",
      "type": "function"
    },
    {
      "inputs": [
        {
          "internalType": "uint256",
          "name": "tokenId",
          "type": "uint256"
        }
      ],
      "name": "tokenURI",
      "outputs": [
        {
          "internalType": "string",
          "name": "",
          "type": "string"
        }
      ],
      "stateMutability": "view",
      "type": "function"
    },
    {
      "inputs": [
        {
          "internalType": "address",
          "name": "from",
          "type": "address"
        },
        {
          "internalType": "address",
          "name": "to",
          "type": "address"
        },
        {
          "internalType": "uint256",
          "name": "tokenId",
          "type": "uint256"
        }
      ],
      "name": "transferFrom",
      "outputs": [],
      "stateMutability": "nonpayable",
      "type": "function"
    }
  ],
  "bytecode": "0x608060405260fa60085560006009553480156200001b57600080fd5b506040518060400160405280600e81526020017f54657874426f78657320495046530000000000000000000000000000000000008152506040518060400160405280600781526020017f54455854424f58000000000000000000000000000000000000000000000000008152508160009080519060200190620000a0929190620001d9565b508060019080519060200190620000b9929190620001d9565b505050620001076040518060400160405280601a81526020017f54657874626f7820436f6e7472616374206465706c6f7965642e0000000000008152506200010d60201b62000da51760201c565b620003b6565b620001ad81604051602401620001249190620002ca565b6040516020818303038152906040527f41304fac000000000000000000000000000000000000000000000000000000007bffffffffffffffffffffffffffffffffffffffffffffffffffffffff19166020820180517bffffffffffffffffffffffffffffffffffffffffffffffffffffffff8381831617835250505050620001b060201b60201c565b50565b60008151905060006a636f6e736f6c652e6c6f679050602083016000808483855afa5050505050565b828054620001e79062000340565b90600052602060002090601f0160209004810192826200020b576000855562000257565b82601f106200022657805160ff191683800117855562000257565b8280016001018555821562000257579182015b828111156200025657825182559160200191906001019062000239565b5b5090506200026691906200026a565b5090565b5b80821115620002855760008160009055506001016200026b565b5090565b60006200029682620002ee565b620002a28185620002f9565b9350620002b48185602086016200030a565b620002bf81620003a5565b840191505092915050565b60006020820190508181036000830152620002e6818462000289565b905092915050565b600081519050919050565b600082825260208201905092915050565b60005b838110156200032a5780820151818401526020810190506200030d565b838111156200033a576000848401525b50505050565b600060028204905060018216806200035957607f821691505b6020821081141562000370576200036f62000376565b5b50919050565b7f4e487b7100000000000000000000000000000000000000000000000000000000600052602260045260246000fd5b6000601f19601f8301169050919050565b612e9480620003c66000396000f3fe608060405234801561001057600080fd5b50600436106100f55760003560e01c80636352211e11610097578063b4c3b8be11610066578063b4c3b8be14610282578063b88d4fde146102a0578063c87b56dd146102bc578063e985e9c5146102ec576100f5565b80636352211e146101e857806370a082311461021857806395d89b4114610248578063a22cb46514610266576100f5565b8063095ea7b3116100d3578063095ea7b31461017857806323b872dd1461019457806339fa8daf146101b057806342842e0e146101cc576100f5565b806301ffc9a7146100fa57806306fdde031461012a578063081812fc14610148575b600080fd5b610114600480360381019061010f9190611ed5565b61031c565b6040516101219190612769565b60405180910390f35b6101326103fe565b60405161013f9190612784565b60405180910390f35b610162600480360381019061015d9190611f68565b610490565b60405161016f91906126d9565b60405180910390f35b610192600480360381019061018d9190611e99565b610515565b005b6101ae60048036038101906101a99190611d93565b61062d565b005b6101ca60048036038101906101c59190611f27565b61068d565b005b6101e660048036038101906101e19190611d93565b6107b6565b005b61020260048036038101906101fd9190611f68565b6107d6565b60405161020f91906126d9565b60405180910390f35b610232600480360381019061022d9190611d2e565b610888565b60405161023f9190612a04565b60405180910390f35b610250610940565b60405161025d9190612784565b60405180910390f35b610280600480360381019061027b9190611e5d565b6109d2565b005b61028a610b53565b6040516102979190612a04565b60405180910390f35b6102ba60048036038101906102b59190611de2565b610b5d565b005b6102d660048036038101906102d19190611f68565b610bbf565b6040516102e39190612784565b60405180910390f35b61030660048036038101906103019190611d57565b610d11565b6040516103139190612769565b60405180910390f35b60007f80ac58cd000000000000000000000000000000000000000000000000000000007bffffffffffffffffffffffffffffffffffffffffffffffffffffffff1916827bffffffffffffffffffffffffffffffffffffffffffffffffffffffff191614806103e757507f5b5e139f000000000000000000000000000000000000000000000000000000007bffffffffffffffffffffffffffffffffffffffffffffffffffffffff1916827bffffffffffffffffffffffffffffffffffffffffffffffffffffffff1916145b806103f757506103f682610e3e565b5b9050919050565b60606000805461040d90612c64565b80601f016020809104026020016040519081016040528092919081815260200182805461043990612c64565b80156104865780601f1061045b57610100808354040283529160200191610486565b820191906000526020600020905b81548152906001019060200180831161046957829003601f168201915b5050505050905090565b600061049b82610ea8565b6104da576040517f08c379a00000000000000000000000000000000000000000000000000000000081526004016104d190612964565b60405180910390fd5b6004600083815260200190815260200160002060009054906101000a900473ffffffffffffffffffffffffffffffffffffffff169050919050565b6000610520826107d6565b90508073ffffffffffffffffffffffffffffffffffffffff168373ffffffffffffffffffffffffffffffffffffffff161415610591576040517f08c379a0000000000000000000000000000000000000000000000000000000008152600401610588906129c4565b60405180910390fd5b8073ffffffffffffffffffffffffffffffffffffffff166105b0610f14565b73ffffffffffffffffffffffffffffffffffffffff1614806105df57506105de816105d9610f14565b610d11565b5b61061e576040517f08c379a0000000000000000000000000000000000000000000000000000000008152600401610615906128a4565b60405180910390fd5b6106288383610f1c565b505050565b61063e610638610f14565b82610fd5565b61067d576040517f08c379a0000000000000000000000000000000000000000000000000000000008152600401610674906129e4565b60405180910390fd5b6106888383836110b3565b505050565b6106cb6040518060400160405280601a81526020017f41626f757420746f206d616b6520616e2065706963204e465421000000000000815250610da5565b60006106d7600761130f565b90506008546009541415610720576040517f08c379a000000000000000000000000000000000000000000000000000000000815260040161071790612824565b60405180910390fd5b61072a338261131d565b610734818361133b565b61073e60076113af565b6009600081548092919061075190612c96565b9190505550610779604051806060016040528060258152602001612e3a6025913982336113c5565b7febb98688741ffa4c7589bf325de30cf7becb63de567842e1ccdb6cb949fdc82c33826040516107aa929190612740565b60405180910390a15050565b6107d183838360405180602001604052806000815250610b5d565b505050565b6000806002600084815260200190815260200160002060009054906101000a900473ffffffffffffffffffffffffffffffffffffffff169050600073ffffffffffffffffffffffffffffffffffffffff168173ffffffffffffffffffffffffffffffffffffffff16141561087f576040517f08c379a0000000000000000000000000000000000000000000000000000000008152600401610876906128e4565b60405180910390fd5b80915050919050565b60008073ffffffffffffffffffffffffffffffffffffffff168273ffffffffffffffffffffffffffffffffffffffff1614156108f9576040517f08c379a00000000000000000000000000000000000000000000000000000000081526004016108f0906128c4565b60405180910390fd5b600360008373ffffffffffffffffffffffffffffffffffffffff1673ffffffffffffffffffffffffffffffffffffffff168152602001908152602001600020549050919050565b60606001805461094f90612c64565b80601f016020809104026020016040519081016040528092919081815260200182805461097b90612c64565b80156109c85780601f1061099d576101008083540402835291602001916109c8565b820191906000526020600020905b8154815290600101906020018083116109ab57829003601f168201915b5050505050905090565b6109da610f14565b73ffffffffffffffffffffffffffffffffffffffff168273ffffffffffffffffffffffffffffffffffffffff161415610a48576040517f08c379a0000000000000000000000000000000000000000000000000000000008152600401610a3f90612864565b60405180910390fd5b8060056000610a55610f14565b73ffffffffffffffffffffffffffffffffffffffff1673ffffffffffffffffffffffffffffffffffffffff16815260200190815260200160002060008473ffffffffffffffffffffffffffffffffffffffff1673ffffffffffffffffffffffffffffffffffffffff16815260200190815260200160002060006101000a81548160ff0219169083151502179055508173ffffffffffffffffffffffffffffffffffffffff16610b02610f14565b73ffffffffffffffffffffffffffffffffffffffff167f17307eab39ab6107e8899845ad3d59bd9653f200f220920489ca2b5937696c3183604051610b479190612769565b60405180910390a35050565b6000600954905090565b610b6e610b68610f14565b83610fd5565b610bad576040517f08c379a0000000000000000000000000000000000000000000000000000000008152600401610ba4906129e4565b60405180910390fd5b610bb984848484611464565b50505050565b6060610bca82610ea8565b610c09576040517f08c379a0000000000000000000000000000000000000000000000000000000008152600401610c0090612944565b60405180910390fd5b6000600660008481526020019081526020016000208054610c2990612c64565b80601f0160208091040260200160405190810160405280929190818152602001828054610c5590612c64565b8015610ca25780601f10610c7757610100808354040283529160200191610ca2565b820191906000526020600020905b815481529060010190602001808311610c8557829003601f168201915b505050505090506000610cb36114c0565b9050600081511415610cc9578192505050610d0c565b600082511115610cfe578082604051602001610ce69291906126b5565b60405160208183030381529060405292505050610d0c565b610d07846114fd565b925050505b919050565b6000600560008473ffffffffffffffffffffffffffffffffffffffff1673ffffffffffffffffffffffffffffffffffffffff16815260200190815260200160002060008373ffffffffffffffffffffffffffffffffffffffff1673ffffffffffffffffffffffffffffffffffffffff16815260200190815260200160002060009054906101000a900460ff16905092915050565b610e3b81604051602401610db99190612784565b6040516020818303038152906040527f41304fac000000000000000000000000000000000000000000000000000000007bffffffffffffffffffffffffffffffffffffffffffffffffffffffff19166020820180517bffffffffffffffffffffffffffffffffffffffffffffffffffffffff83818316178352505050506115a4565b50565b60007f01ffc9a7000000000000000000000000000000000000000000000000000000007bffffffffffffffffffffffffffffffffffffffffffffffffffffffff1916827bffffffffffffffffffffffffffffffffffffffffffffffffffffffff1916149050919050565b60008073ffffffffffffffffffffffffffffffffffffffff166002600084815260200190815260200160002060009054906101000a900473ffffffffffffffffffffffffffffffffffffffff1673ffffffffffffffffffffffffffffffffffffffff1614159050919050565b600033905090565b816004600083815260200190815260200160002060006101000a81548173ffffffffffffffffffffffffffffffffffffffff021916908373ffffffffffffffffffffffffffffffffffffffff160217905550808273ffffffffffffffffffffffffffffffffffffffff16610f8f836107d6565b73ffffffffffffffffffffffffffffffffffffffff167f8c5be1e5ebec7d5bd14f71427d1e84f3dd0314c0f7b2291e5b200ac8c7c3b92560405160405180910390a45050565b6000610fe082610ea8565b61101f576040517f08c379a000000000000000000000000000000000000000000000000000000000815260040161101690612884565b60405180910390fd5b600061102a836107d6565b90508073ffffffffffffffffffffffffffffffffffffffff168473ffffffffffffffffffffffffffffffffffffffff16148061109957508373ffffffffffffffffffffffffffffffffffffffff1661108184610490565b73ffffffffffffffffffffffffffffffffffffffff16145b806110aa57506110a98185610d11565b5b91505092915050565b8273ffffffffffffffffffffffffffffffffffffffff166110d3826107d6565b73ffffffffffffffffffffffffffffffffffffffff1614611129576040517f08c379a000000000000000000000000000000000000000000000000000000000815260040161112090612984565b60405180910390fd5b600073ffffffffffffffffffffffffffffffffffffffff168273ffffffffffffffffffffffffffffffffffffffff161415611199576040517f08c379a000000000000000000000000000000000000000000000000000000000815260040161119090612844565b60405180910390fd5b6111a48383836115cd565b6111af600082610f1c565b6001600360008573ffffffffffffffffffffffffffffffffffffffff1673ffffffffffffffffffffffffffffffffffffffff16815260200190815260200160002060008282546111ff9190612b7a565b925050819055506001600360008473ffffffffffffffffffffffffffffffffffffffff1673ffffffffffffffffffffffffffffffffffffffff16815260200190815260200160002060008282546112569190612af3565b92505081905550816002600083815260200190815260200160002060006101000a81548173ffffffffffffffffffffffffffffffffffffffff021916908373ffffffffffffffffffffffffffffffffffffffff160217905550808273ffffffffffffffffffffffffffffffffffffffff168473ffffffffffffffffffffffffffffffffffffffff167fddf252ad1be2c89b69c2b068fc378daa952ba7f163c4a11628f55a4df523b3ef60405160405180910390a4505050565b600081600001549050919050565b6113378282604051806020016040528060008152506115d2565b5050565b61134482610ea8565b611383576040517f08c379a000000000000000000000000000000000000000000000000000000000815260040161137a90612904565b60405180910390fd5b806006600084815260200190815260200160002090805190602001906113aa929190611b52565b505050565b6001816000016000828254019250508190555050565b61145f8383836040516024016113dd939291906127a6565b6040516020818303038152906040527fe3849f79000000000000000000000000000000000000000000000000000000007bffffffffffffffffffffffffffffffffffffffffffffffffffffffff19166020820180517bffffffffffffffffffffffffffffffffffffffffffffffffffffffff83818316178352505050506115a4565b505050565b61146f8484846110b3565b61147b8484848461162d565b6114ba576040517f08c379a00000000000000000000000000000000000000000000000000000000081526004016114b1906127e4565b60405180910390fd5b50505050565b60606040518060400160405280600781526020017f697066733a2f2f00000000000000000000000000000000000000000000000000815250905090565b606061150882610ea8565b611547576040517f08c379a000000000000000000000000000000000000000000000000000000000815260040161153e906129a4565b60405180910390fd5b60006115516114c0565b90506000815111611571576040518060200160405280600081525061159c565b8061157b846117c4565b60405160200161158c9291906126b5565b6040516020818303038152906040525b915050919050565b60008151905060006a636f6e736f6c652e6c6f679050602083016000808483855afa5050505050565b505050565b6115dc8383611971565b6115e9600084848461162d565b611628576040517f08c379a000000000000000000000000000000000000000000000000000000000815260040161161f906127e4565b60405180910390fd5b505050565b600061164e8473ffffffffffffffffffffffffffffffffffffffff16611b3f565b156117b7578373ffffffffffffffffffffffffffffffffffffffff1663150b7a02611677610f14565b8786866040518563ffffffff1660e01b815260040161169994939291906126f4565b602060405180830381600087803b1580156116b357600080fd5b505af19250505080156116e457506040513d601f19601f820116820180604052508101906116e19190611efe565b60015b611767573d8060008114611714576040519150601f19603f3d011682016040523d82523d6000602084013e611719565b606091505b5060008151141561175f576040517f08c379a0000000000000000000000000000000000000000000000000000000008152600401611756906127e4565b60405180910390fd5b805181602001fd5b63150b7a0260e01b7bffffffffffffffffffffffffffffffffffffffffffffffffffffffff1916817bffffffffffffffffffffffffffffffffffffffffffffffffffffffff1916149150506117bc565b600190505b949350505050565b6060600082141561180c576040518060400160405280600181526020017f3000000000000000000000000000000000000000000000000000000000000000815250905061196c565b600082905060005b6000821461183e57808061182790612c96565b915050600a826118379190612b49565b9150611814565b60008167ffffffffffffffff811115611880577f4e487b7100000000000000000000000000000000000000000000000000000000600052604160045260246000fd5b6040519080825280601f01601f1916602001820160405280156118b25781602001600182028036833780820191505090505b5090505b60008514611965576001826118cb9190612b7a565b9150600a856118da9190612cdf565b60306118e69190612af3565b60f81b818381518110611922577f4e487b7100000000000000000000000000000000000000000000000000000000600052603260045260246000fd5b60200101907effffffffffffffffffffffffffffffffffffffffffffffffffffffffffffff1916908160001a905350600a8561195e9190612b49565b94506118b6565b8093505050505b919050565b600073ffffffffffffffffffffffffffffffffffffffff168273ffffffffffffffffffffffffffffffffffffffff1614156119e1576040517f08c379a00000000000000000000000000000000000000000000000000000000081526004016119d890612924565b60405180910390fd5b6119ea81610ea8565b15611a2a576040517f08c379a0000000000000000000000000000000000000000000000000000000008152600401611a2190612804565b60405180910390fd5b611a36600083836115cd565b6001600360008473ffffffffffffffffffffffffffffffffffffffff1673ffffffffffffffffffffffffffffffffffffffff1681526020019081526020016000206000828254611a869190612af3565b92505081905550816002600083815260200190815260200160002060006101000a81548173ffffffffffffffffffffffffffffffffffffffff021916908373ffffffffffffffffffffffffffffffffffffffff160217905550808273ffffffffffffffffffffffffffffffffffffffff16600073ffffffffffffffffffffffffffffffffffffffff167fddf252ad1be2c89b69c2b068fc378daa952ba7f163c4a11628f55a4df523b3ef60405160405180910390a45050565b600080823b905060008111915050919050565b828054611b5e90612c64565b90600052602060002090601f016020900481019282611b805760008555611bc7565b82601f10611b9957805160ff1916838001178555611bc7565b82800160010185558215611bc7579182015b82811115611bc6578251825591602001919060010190611bab565b5b509050611bd49190611bd8565b5090565b5b80821115611bf1576000816000905550600101611bd9565b5090565b6000611c08611c0384612a50565b612a1f565b905082815260208101848484011115611c2057600080fd5b611c2b848285612c22565b509392505050565b6000611c46611c4184612a80565b612a1f565b905082815260208101848484011115611c5e57600080fd5b611c69848285612c22565b509392505050565b600081359050611c8081612ddd565b92915050565b600081359050611c9581612df4565b92915050565b600081359050611caa81612e0b565b92915050565b600081519050611cbf81612e0b565b92915050565b600082601f830112611cd657600080fd5b8135611ce6848260208601611bf5565b91505092915050565b600082601f830112611d0057600080fd5b8135611d10848260208601611c33565b91505092915050565b600081359050611d2881612e22565b92915050565b600060208284031215611d4057600080fd5b6000611d4e84828501611c71565b91505092915050565b60008060408385031215611d6a57600080fd5b6000611d7885828601611c71565b9250506020611d8985828601611c71565b9150509250929050565b600080600060608486031215611da857600080fd5b6000611db686828701611c71565b9350506020611dc786828701611c71565b9250506040611dd886828701611d19565b9150509250925092565b60008060008060808587031215611df857600080fd5b6000611e0687828801611c71565b9450506020611e1787828801611c71565b9350506040611e2887828801611d19565b925050606085013567ffffffffffffffff811115611e4557600080fd5b611e5187828801611cc5565b91505092959194509250565b60008060408385031215611e7057600080fd5b6000611e7e85828601611c71565b9250506020611e8f85828601611c86565b9150509250929050565b60008060408385031215611eac57600080fd5b6000611eba85828601611c71565b9250506020611ecb85828601611d19565b9150509250929050565b600060208284031215611ee757600080fd5b6000611ef584828501611c9b565b91505092915050565b600060208284031215611f1057600080fd5b6000611f1e84828501611cb0565b91505092915050565b600060208284031215611f3957600080fd5b600082013567ffffffffffffffff811115611f5357600080fd5b611f5f84828501611cef565b91505092915050565b600060208284031215611f7a57600080fd5b6000611f8884828501611d19565b91505092915050565b611f9a81612bae565b82525050565b611fa981612bc0565b82525050565b6000611fba82612ab0565b611fc48185612ac6565b9350611fd4818560208601612c31565b611fdd81612dcc565b840191505092915050565b6000611ff382612abb565b611ffd8185612ad7565b935061200d818560208601612c31565b61201681612dcc565b840191505092915050565b600061202c82612abb565b6120368185612ae8565b9350612046818560208601612c31565b80840191505092915050565b600061205f603283612ad7565b91507f4552433732313a207472616e7366657220746f206e6f6e20455243373231526560008301527f63656976657220696d706c656d656e74657200000000000000000000000000006020830152604082019050919050565b60006120c5601c83612ad7565b91507f4552433732313a20746f6b656e20616c7265616479206d696e746564000000006000830152602082019050919050565b6000612105602283612ad7565b91507f536f7272792c206d6178204e465427732068617665206265656e206d696e746560008301527f642e0000000000000000000000000000000000000000000000000000000000006020830152604082019050919050565b600061216b602483612ad7565b91507f4552433732313a207472616e7366657220746f20746865207a65726f2061646460008301527f72657373000000000000000000000000000000000000000000000000000000006020830152604082019050919050565b60006121d1601983612ad7565b91507f4552433732313a20617070726f766520746f2063616c6c6572000000000000006000830152602082019050919050565b6000612211602c83612ad7565b91507f4552433732313a206f70657261746f7220717565727920666f72206e6f6e657860008301527f697374656e7420746f6b656e00000000000000000000000000000000000000006020830152604082019050919050565b6000612277603883612ad7565b91507f4552433732313a20617070726f76652063616c6c6572206973206e6f74206f7760008301527f6e6572206e6f7220617070726f76656420666f7220616c6c00000000000000006020830152604082019050919050565b60006122dd602a83612ad7565b91507f4552433732313a2062616c616e636520717565727920666f7220746865207a6560008301527f726f2061646472657373000000000000000000000000000000000000000000006020830152604082019050919050565b6000612343602983612ad7565b91507f4552433732313a206f776e657220717565727920666f72206e6f6e657869737460008301527f656e7420746f6b656e00000000000000000000000000000000000000000000006020830152604082019050919050565b60006123a9602e83612ad7565b91507f45524337323155524953746f726167653a2055524920736574206f66206e6f6e60008301527f6578697374656e7420746f6b656e0000000000000000000000000000000000006020830152604082019050919050565b600061240f602083612ad7565b91507f4552433732313a206d696e7420746f20746865207a65726f20616464726573736000830152602082019050919050565b600061244f603183612ad7565b91507f45524337323155524953746f726167653a2055524920717565727920666f722060008301527f6e6f6e6578697374656e7420746f6b656e0000000000000000000000000000006020830152604082019050919050565b60006124b5602c83612ad7565b91507f4552433732313a20617070726f76656420717565727920666f72206e6f6e657860008301527f697374656e7420746f6b656e00000000000000000000000000000000000000006020830152604082019050919050565b600061251b602983612ad7565b91507f4552433732313a207472616e73666572206f6620746f6b656e2074686174206960008301527f73206e6f74206f776e00000000000000000000000000000000000000000000006020830152604082019050919050565b6000612581602f83612ad7565b91507f4552433732314d657461646174613a2055524920717565727920666f72206e6f60008301527f6e6578697374656e7420746f6b656e00000000000000000000000000000000006020830152604082019050919050565b60006125e7602183612ad7565b91507f4552433732313a20617070726f76616c20746f2063757272656e74206f776e6560008301527f72000000000000000000000000000000000000000000000000000000000000006020830152604082019050919050565b600061264d603183612ad7565b91507f4552433732313a207472616e736665722063616c6c6572206973206e6f74206f60008301527f776e6572206e6f7220617070726f7665640000000000000000000000000000006020830152604082019050919050565b6126af81612c18565b82525050565b60006126c18285612021565b91506126cd8284612021565b91508190509392505050565b60006020820190506126ee6000830184611f91565b92915050565b60006080820190506127096000830187611f91565b6127166020830186611f91565b61272360408301856126a6565b81810360608301526127358184611faf565b905095945050505050565b60006040820190506127556000830185611f91565b61276260208301846126a6565b9392505050565b600060208201905061277e6000830184611fa0565b92915050565b6000602082019050818103600083015261279e8184611fe8565b905092915050565b600060608201905081810360008301526127c08186611fe8565b90506127cf60208301856126a6565b6127dc6040830184611f91565b949350505050565b600060208201905081810360008301526127fd81612052565b9050919050565b6000602082019050818103600083015261281d816120b8565b9050919050565b6000602082019050818103600083015261283d816120f8565b9050919050565b6000602082019050818103600083015261285d8161215e565b9050919050565b6000602082019050818103600083015261287d816121c4565b9050919050565b6000602082019050818103600083015261289d81612204565b9050919050565b600060208201905081810360008301526128bd8161226a565b9050919050565b600060208201905081810360008301526128dd816122d0565b9050919050565b600060208201905081810360008301526128fd81612336565b9050919050565b6000602082019050818103600083015261291d8161239c565b9050919050565b6000602082019050818103600083015261293d81612402565b9050919050565b6000602082019050818103600083015261295d81612442565b9050919050565b6000602082019050818103600083015261297d816124a8565b9050919050565b6000602082019050818103600083015261299d8161250e565b9050919050565b600060208201905081810360008301526129bd81612574565b9050919050565b600060208201905081810360008301526129dd816125da565b9050919050565b600060208201905081810360008301526129fd81612640565b9050919050565b6000602082019050612a1960008301846126a6565b92915050565b6000604051905081810181811067ffffffffffffffff82111715612a4657612a45612d9d565b5b8060405250919050565b600067ffffffffffffffff821115612a6b57612a6a612d9d565b5b601f19601f8301169050602081019050919050565b600067ffffffffffffffff821115612a9b57612a9a612d9d565b5b601f19601f8301169050602081019050919050565b600081519050919050565b600081519050919050565b600082825260208201905092915050565b600082825260208201905092915050565b600081905092915050565b6000612afe82612c18565b9150612b0983612c18565b9250827fffffffffffffffffffffffffffffffffffffffffffffffffffffffffffffffff03821115612b3e57612b3d612d10565b5b828201905092915050565b6000612b5482612c18565b9150612b5f83612c18565b925082612b6f57612b6e612d3f565b5b828204905092915050565b6000612b8582612c18565b9150612b9083612c18565b925082821015612ba357612ba2612d10565b5b828203905092915050565b6000612bb982612bf8565b9050919050565b60008115159050919050565b60007fffffffff0000000000000000000000000000000000000000000000000000000082169050919050565b600073ffffffffffffffffffffffffffffffffffffffff82169050919050565b6000819050919050565b82818337600083830152505050565b60005b83811015612c4f578082015181840152602081019050612c34565b83811115612c5e576000848401525b50505050565b60006002820490506001821680612c7c57607f821691505b60208210811415612c9057612c8f612d6e565b5b50919050565b6000612ca182612c18565b91507fffffffffffffffffffffffffffffffffffffffffffffffffffffffffffffffff821415612cd457612cd3612d10565b5b600182019050919050565b6000612cea82612c18565b9150612cf583612c18565b925082612d0557612d04612d3f565b5b828206905092915050565b7f4e487b7100000000000000000000000000000000000000000000000000000000600052601160045260246000fd5b7f4e487b7100000000000000000000000000000000000000000000000000000000600052601260045260246000fd5b7f4e487b7100000000000000000000000000000000000000000000000000000000600052602260045260246000fd5b7f4e487b7100000000000000000000000000000000000000000000000000000000600052604160045260246000fd5b6000601f19601f8301169050919050565b612de681612bae565b8114612df157600080fd5b50565b612dfd81612bc0565b8114612e0857600080fd5b50565b612e1481612bcc565b8114612e1f57600080fd5b50565b612e2b81612c18565b8114612e3657600080fd5b5056fe416e204e465420772f20494420257320686173206265656e206d696e74656420746f202573a26469706673582212204a6debd94156aa354a55dd0b4f0d67cf28cca96d0906257adbf3411d3c0befbe64736f6c63430008000033",
  "linkReferences": {},
  "deployedLinkReferences": {}
}